{
  "_format": "hh-sol-artifact-1",
  "contractName": "Defi_v1",
  "sourceName": "contracts/defi.sol",
  "abi": [
    {
      "inputs": [],
      "name": "InvalidInitialization",
      "type": "error"
    },
    {
      "inputs": [],
      "name": "NotInitializing",
      "type": "error"
    },
    {
      "anonymous": false,
      "inputs": [
        {
          "indexed": false,
          "internalType": "uint64",
          "name": "version",
          "type": "uint64"
        }
      ],
      "name": "Initialized",
      "type": "event"
    },
    {
      "anonymous": false,
      "inputs": [
        {
          "indexed": true,
          "internalType": "address",
          "name": "user",
          "type": "address"
        },
        {
          "indexed": false,
          "internalType": "uint256",
          "name": "amount",
          "type": "uint256"
        },
        {
          "indexed": false,
          "internalType": "uint256",
          "name": "time",
          "type": "uint256"
        }
      ],
      "name": "deposit",
      "type": "event"
    },
    {
      "anonymous": false,
      "inputs": [
        {
          "indexed": true,
          "internalType": "address",
          "name": "user",
          "type": "address"
        },
        {
          "indexed": false,
          "internalType": "uint256",
          "name": "amount",
          "type": "uint256"
        },
        {
          "indexed": false,
          "internalType": "uint256",
          "name": "time",
          "type": "uint256"
        }
      ],
      "name": "stake",
      "type": "event"
    },
    {
      "anonymous": false,
      "inputs": [
        {
          "indexed": true,
          "internalType": "address",
          "name": "user",
          "type": "address"
        },
        {
          "indexed": false,
          "internalType": "uint256",
          "name": "amount",
          "type": "uint256"
        },
        {
          "indexed": false,
          "internalType": "uint256",
          "name": "time",
          "type": "uint256"
        }
      ],
      "name": "unstake",
      "type": "event"
    },
    {
      "inputs": [],
      "name": "Deposit",
      "outputs": [],
      "stateMutability": "payable",
      "type": "function"
    },
    {
      "inputs": [
        {
          "internalType": "uint256",
          "name": "amount",
          "type": "uint256"
        }
      ],
      "name": "ForceUnstake",
      "outputs": [],
      "stateMutability": "nonpayable",
      "type": "function"
    },
    {
      "inputs": [
        {
          "internalType": "uint256",
          "name": "amount",
          "type": "uint256"
        },
        {
          "internalType": "uint256",
          "name": "duration",
          "type": "uint256"
        }
      ],
      "name": "Stake",
      "outputs": [],
      "stateMutability": "nonpayable",
      "type": "function"
    },
    {
      "inputs": [
        {
          "internalType": "uint256",
          "name": "amount",
          "type": "uint256"
        }
      ],
      "name": "Unstake",
      "outputs": [],
      "stateMutability": "nonpayable",
      "type": "function"
    },
    {
      "inputs": [
        {
          "internalType": "address",
          "name": "",
          "type": "address"
        }
      ],
      "name": "balance",
      "outputs": [
        {
          "internalType": "uint256",
          "name": "",
          "type": "uint256"
        }
      ],
      "stateMutability": "view",
      "type": "function"
    },
    {
      "inputs": [
        {
          "internalType": "address",
          "name": "",
          "type": "address"
        }
      ],
      "name": "endTime",
      "outputs": [
        {
          "internalType": "uint256",
          "name": "",
          "type": "uint256"
        }
      ],
      "stateMutability": "view",
      "type": "function"
    },
    {
      "inputs": [
        {
          "internalType": "address",
          "name": "",
          "type": "address"
        }
      ],
      "name": "stakeBalance",
      "outputs": [
        {
          "internalType": "uint256",
          "name": "",
          "type": "uint256"
        }
      ],
      "stateMutability": "view",
      "type": "function"
    }
  ],
  "bytecode": "0x6080604052348015600f57600080fd5b50610d2e8061001f6000396000f3fe6080604052600436106100705760003560e01c8063d9285f281161004e578063d9285f2814610118578063e3d670d714610141578063ed21248c1461017e578063f1f1db1e1461018857610070565b80634aefdccd146100755780634e7c57a6146100b2578063c9ec05ea146100ef575b600080fd5b34801561008157600080fd5b5061009c60048036038101906100979190610921565b6101b1565b6040516100a99190610967565b60405180910390f35b3480156100be57600080fd5b506100d960048036038101906100d49190610921565b6101c9565b6040516100e69190610967565b60405180910390f35b3480156100fb57600080fd5b50610116600480360381019061011191906109ae565b6101e1565b005b34801561012457600080fd5b5061013f600480360381019061013a91906109ee565b6103bc565b005b34801561014d57600080fd5b5061016860048036038101906101639190610921565b6105ba565b6040516101759190610967565b60405180910390f35b6101866105d2565b005b34801561019457600080fd5b506101af60048036038101906101aa91906109ee565b6106bc565b005b60026020528060005260406000206000915090505481565b60016020528060005260406000206000915090505481565b6000803373ffffffffffffffffffffffffffffffffffffffff1673ffffffffffffffffffffffffffffffffffffffff16815260200190815260200160002054821115610262576040517f08c379a000000000000000000000000000000000000000000000000000000000815260040161025990610a78565b60405180910390fd5b81600160003373ffffffffffffffffffffffffffffffffffffffff1673ffffffffffffffffffffffffffffffffffffffff16815260200190815260200160002060008282546102b19190610ac7565b92505081905550603c816102c59190610afb565b426102d09190610ac7565b600260003373ffffffffffffffffffffffffffffffffffffffff1673ffffffffffffffffffffffffffffffffffffffff16815260200190815260200160002081905550816000803373ffffffffffffffffffffffffffffffffffffffff1673ffffffffffffffffffffffffffffffffffffffff16815260200190815260200160002060008282546103619190610b3d565b925050819055503373ffffffffffffffffffffffffffffffffffffffff167f0c51b88fb51791573552763b6cd5c42e661f3426347a6a12f3fcb5ade1919ad283426040516103b0929190610b71565b60405180910390a25050565b80600160003373ffffffffffffffffffffffffffffffffffffffff1673ffffffffffffffffffffffffffffffffffffffff16815260200190815260200160002054101561043e576040517f08c379a000000000000000000000000000000000000000000000000000000000815260040161043590610a78565b60405180910390fd5b60006064600a8361044f9190610afb565b6104599190610bc9565b9050806000803073ffffffffffffffffffffffffffffffffffffffff1673ffffffffffffffffffffffffffffffffffffffff16815260200190815260200160002060008282546104a99190610ac7565b9250508190555080826104bc9190610b3d565b6000803373ffffffffffffffffffffffffffffffffffffffff1673ffffffffffffffffffffffffffffffffffffffff16815260200190815260200160002060008282546105099190610ac7565b9250508190555081600160003373ffffffffffffffffffffffffffffffffffffffff1673ffffffffffffffffffffffffffffffffffffffff168152602001908152602001600020600082825461055f9190610b3d565b925050819055503373ffffffffffffffffffffffffffffffffffffffff167fa2bc66be973085efffae26687511192162469741538e6a6fdcded1cb7fa0662e83426040516105ae929190610b71565b60405180910390a25050565b60006020528060005260406000206000915090505481565b60003411610615576040517f08c379a000000000000000000000000000000000000000000000000000000000815260040161060c90610c46565b60405180910390fd5b346000803373ffffffffffffffffffffffffffffffffffffffff1673ffffffffffffffffffffffffffffffffffffffff16815260200190815260200160002060008282546106639190610ac7565b925050819055503373ffffffffffffffffffffffffffffffffffffffff167f0efe6a8b11bdbb92d49045fffbd9e8dc4b5b43f7a0459dae9c8fdf27311f275e34426040516106b2929190610b71565b60405180910390a2565b42600260003373ffffffffffffffffffffffffffffffffffffffff1673ffffffffffffffffffffffffffffffffffffffff16815260200190815260200160002054111561073e576040517f08c379a000000000000000000000000000000000000000000000000000000000815260040161073590610cd8565b60405180910390fd5b80600160003373ffffffffffffffffffffffffffffffffffffffff1673ffffffffffffffffffffffffffffffffffffffff1681526020019081526020016000205410156107c0576040517f08c379a00000000000000000000000000000000000000000000000000000000081526004016107b790610a78565b60405180910390fd5b806000803373ffffffffffffffffffffffffffffffffffffffff1673ffffffffffffffffffffffffffffffffffffffff168152602001908152602001600020600082825461080e9190610ac7565b9250508190555080600160003373ffffffffffffffffffffffffffffffffffffffff1673ffffffffffffffffffffffffffffffffffffffff16815260200190815260200160002060008282546108649190610b3d565b925050819055503373ffffffffffffffffffffffffffffffffffffffff167fa2bc66be973085efffae26687511192162469741538e6a6fdcded1cb7fa0662e82426040516108b3929190610b71565b60405180910390a250565b600080fd5b600073ffffffffffffffffffffffffffffffffffffffff82169050919050565b60006108ee826108c3565b9050919050565b6108fe816108e3565b811461090957600080fd5b50565b60008135905061091b816108f5565b92915050565b600060208284031215610937576109366108be565b5b60006109458482850161090c565b91505092915050565b6000819050919050565b6109618161094e565b82525050565b600060208201905061097c6000830184610958565b92915050565b61098b8161094e565b811461099657600080fd5b50565b6000813590506109a881610982565b92915050565b600080604083850312156109c5576109c46108be565b5b60006109d385828601610999565b92505060206109e485828601610999565b9150509250929050565b600060208284031215610a0457610a036108be565b5b6000610a1284828501610999565b91505092915050565b600082825260208201905092915050565b7f4e6f20656e6f7567682062616c616e6365000000000000000000000000000000600082015250565b6000610a62601183610a1b565b9150610a6d82610a2c565b602082019050919050565b60006020820190508181036000830152610a9181610a55565b9050919050565b7f4e487b7100000000000000000000000000000000000000000000000000000000600052601160045260246000fd5b6000610ad28261094e565b9150610add8361094e565b9250828201905080821115610af557610af4610a98565b5b92915050565b6000610b068261094e565b9150610b118361094e565b9250828202610b1f8161094e565b91508282048414831517610b3657610b35610a98565b5b5092915050565b6000610b488261094e565b9150610b538361094e565b9250828203905081811115610b6b57610b6a610a98565b5b92915050565b6000604082019050610b866000830185610958565b610b936020830184610958565b9392505050565b7f4e487b7100000000000000000000000000000000000000000000000000000000600052601260045260246000fd5b6000610bd48261094e565b9150610bdf8361094e565b925082610bef57610bee610b9a565b5b828204905092915050565b7f416d6f756e74206d757374206265206d6f7265207468616e2030000000000000600082015250565b6000610c30601a83610a1b565b9150610c3b82610bfa565b602082019050919050565b60006020820190508181036000830152610c5f81610c23565b9050919050565b7f596f752063616e206e6f7420756e7374616b6520756e74696c6c2074696d652060008201527f68617320656e6400000000000000000000000000000000000000000000000000602082015250565b6000610cc2602783610a1b565b9150610ccd82610c66565b604082019050919050565b60006020820190508181036000830152610cf181610cb5565b905091905056fea26469706673582212205b2a7df992e889bb928c76bfd658a1288ef36dccbaaf14de2052f8b82e76b0c764736f6c634300081c0033",
  "linkReferences": {},
  "deployedLinkReferences": {}
}