{
  "_format": "hh-sol-artifact-1",
  "contractName": "Defi_v1",
  "sourceName": "contracts/defi.sol",
  "abi": [
    {
      "inputs": [],
      "name": "InvalidInitialization",
      "type": "error"
    },
    {
      "inputs": [],
      "name": "NotInitializing",
      "type": "error"
    },
    {
      "anonymous": false,
      "inputs": [
        {
          "indexed": false,
          "internalType": "uint64",
          "name": "version",
          "type": "uint64"
        }
      ],
      "name": "Initialized",
      "type": "event"
    },
    {
      "anonymous": false,
      "inputs": [
        {
          "indexed": true,
          "internalType": "address",
          "name": "user",
          "type": "address"
        },
        {
          "indexed": false,
          "internalType": "uint256",
          "name": "amount",
          "type": "uint256"
        }
      ],
      "name": "deposit",
      "type": "event"
    },
    {
      "anonymous": false,
      "inputs": [
        {
          "indexed": true,
          "internalType": "address",
          "name": "user",
          "type": "address"
        },
        {
          "indexed": false,
          "internalType": "uint256",
          "name": "amount",
          "type": "uint256"
        }
      ],
      "name": "stake",
      "type": "event"
    },
    {
      "anonymous": false,
      "inputs": [
        {
          "indexed": true,
          "internalType": "address",
          "name": "user",
          "type": "address"
        },
        {
          "indexed": false,
          "internalType": "uint256",
          "name": "amount",
          "type": "uint256"
        }
      ],
      "name": "unstake",
      "type": "event"
    },
    {
      "inputs": [],
      "name": "Deposit",
      "outputs": [],
      "stateMutability": "payable",
      "type": "function"
    },
    {
      "inputs": [
        {
          "internalType": "uint256",
          "name": "amount",
          "type": "uint256"
        }
      ],
      "name": "ForceUnstake",
      "outputs": [],
      "stateMutability": "nonpayable",
      "type": "function"
    },
    {
      "inputs": [
        {
          "internalType": "uint256",
          "name": "amount",
          "type": "uint256"
        },
        {
          "internalType": "uint256",
          "name": "duration",
          "type": "uint256"
        }
      ],
      "name": "Stake",
      "outputs": [],
      "stateMutability": "nonpayable",
      "type": "function"
    },
    {
      "inputs": [
        {
          "internalType": "uint256",
          "name": "amount",
          "type": "uint256"
        }
      ],
      "name": "Unstake",
      "outputs": [],
      "stateMutability": "nonpayable",
      "type": "function"
    },
    {
      "inputs": [
        {
          "internalType": "address",
          "name": "",
          "type": "address"
        }
      ],
      "name": "balance",
      "outputs": [
        {
          "internalType": "uint256",
          "name": "",
          "type": "uint256"
        }
      ],
      "stateMutability": "view",
      "type": "function"
    },
    {
      "inputs": [
        {
          "internalType": "address",
          "name": "",
          "type": "address"
        }
      ],
      "name": "endTime",
      "outputs": [
        {
          "internalType": "uint256",
          "name": "",
          "type": "uint256"
        }
      ],
      "stateMutability": "view",
      "type": "function"
    },
    {
      "inputs": [
        {
          "internalType": "address",
          "name": "",
          "type": "address"
        }
      ],
      "name": "stakeBalance",
      "outputs": [
        {
          "internalType": "uint256",
          "name": "",
          "type": "uint256"
        }
      ],
      "stateMutability": "view",
      "type": "function"
    }
  ],
  "bytecode": "0x6080604052348015600f57600080fd5b50610cfd8061001f6000396000f3fe6080604052600436106100705760003560e01c8063d9285f281161004e578063d9285f2814610118578063e3d670d714610141578063ed21248c1461017e578063f1f1db1e1461018857610070565b80634aefdccd146100755780634e7c57a6146100b2578063c9ec05ea146100ef575b600080fd5b34801561008157600080fd5b5061009c60048036038101906100979190610919565b6101b1565b6040516100a9919061095f565b60405180910390f35b3480156100be57600080fd5b506100d960048036038101906100d49190610919565b6101c9565b6040516100e6919061095f565b60405180910390f35b3480156100fb57600080fd5b50610116600480360381019061011191906109a6565b6101e1565b005b34801561012457600080fd5b5061013f600480360381019061013a91906109e6565b6103ba565b005b34801561014d57600080fd5b5061016860048036038101906101639190610919565b6105b6565b604051610175919061095f565b60405180910390f35b6101866105ce565b005b34801561019457600080fd5b506101af60048036038101906101aa91906109e6565b6106b6565b005b60026020528060005260406000206000915090505481565b60016020528060005260406000206000915090505481565b6000803373ffffffffffffffffffffffffffffffffffffffff1673ffffffffffffffffffffffffffffffffffffffff16815260200190815260200160002054821115610262576040517f08c379a000000000000000000000000000000000000000000000000000000000815260040161025990610a70565b60405180910390fd5b81600160003373ffffffffffffffffffffffffffffffffffffffff1673ffffffffffffffffffffffffffffffffffffffff16815260200190815260200160002060008282546102b19190610abf565b92505081905550603c816102c59190610af3565b426102d09190610abf565b600260003373ffffffffffffffffffffffffffffffffffffffff1673ffffffffffffffffffffffffffffffffffffffff16815260200190815260200160002081905550816000803373ffffffffffffffffffffffffffffffffffffffff1673ffffffffffffffffffffffffffffffffffffffff16815260200190815260200160002060008282546103619190610b35565b925050819055503373ffffffffffffffffffffffffffffffffffffffff167fadc9772e9f3b2218b39abb39e4dd00e4a7f4ca0809c2c3fd73a7011defd8a83f836040516103ae919061095f565b60405180910390a25050565b80600160003373ffffffffffffffffffffffffffffffffffffffff1673ffffffffffffffffffffffffffffffffffffffff16815260200190815260200160002054101561043c576040517f08c379a000000000000000000000000000000000000000000000000000000000815260040161043390610a70565b60405180910390fd5b60006064600a8361044d9190610af3565b6104579190610b98565b9050806000803073ffffffffffffffffffffffffffffffffffffffff1673ffffffffffffffffffffffffffffffffffffffff16815260200190815260200160002060008282546104a79190610abf565b9250508190555080826104ba9190610b35565b6000803373ffffffffffffffffffffffffffffffffffffffff1673ffffffffffffffffffffffffffffffffffffffff16815260200190815260200160002060008282546105079190610abf565b9250508190555081600160003373ffffffffffffffffffffffffffffffffffffffff1673ffffffffffffffffffffffffffffffffffffffff168152602001908152602001600020600082825461055d9190610b35565b925050819055503373ffffffffffffffffffffffffffffffffffffffff167fc2a672e0cc64044b86cd2af30dd1307e8b224ab9891986004368ab62b69715e4836040516105aa919061095f565b60405180910390a25050565b60006020528060005260406000206000915090505481565b60003411610611576040517f08c379a000000000000000000000000000000000000000000000000000000000815260040161060890610c15565b60405180910390fd5b346000803373ffffffffffffffffffffffffffffffffffffffff1673ffffffffffffffffffffffffffffffffffffffff168152602001908152602001600020600082825461065f9190610abf565b925050819055503373ffffffffffffffffffffffffffffffffffffffff167f47e7ef24b3022e382e65b1298581281f0ae273ac4f76464efcf5b06769264f2f346040516106ac919061095f565b60405180910390a2565b42600260003373ffffffffffffffffffffffffffffffffffffffff1673ffffffffffffffffffffffffffffffffffffffff168152602001908152602001600020541115610738576040517f08c379a000000000000000000000000000000000000000000000000000000000815260040161072f90610ca7565b60405180910390fd5b80600160003373ffffffffffffffffffffffffffffffffffffffff1673ffffffffffffffffffffffffffffffffffffffff1681526020019081526020016000205410156107ba576040517f08c379a00000000000000000000000000000000000000000000000000000000081526004016107b190610a70565b60405180910390fd5b806000803373ffffffffffffffffffffffffffffffffffffffff1673ffffffffffffffffffffffffffffffffffffffff16815260200190815260200160002060008282546108089190610abf565b9250508190555080600160003373ffffffffffffffffffffffffffffffffffffffff1673ffffffffffffffffffffffffffffffffffffffff168152602001908152602001600020600082825461085e9190610b35565b925050819055503373ffffffffffffffffffffffffffffffffffffffff167fc2a672e0cc64044b86cd2af30dd1307e8b224ab9891986004368ab62b69715e4826040516108ab919061095f565b60405180910390a250565b600080fd5b600073ffffffffffffffffffffffffffffffffffffffff82169050919050565b60006108e6826108bb565b9050919050565b6108f6816108db565b811461090157600080fd5b50565b600081359050610913816108ed565b92915050565b60006020828403121561092f5761092e6108b6565b5b600061093d84828501610904565b91505092915050565b6000819050919050565b61095981610946565b82525050565b60006020820190506109746000830184610950565b92915050565b61098381610946565b811461098e57600080fd5b50565b6000813590506109a08161097a565b92915050565b600080604083850312156109bd576109bc6108b6565b5b60006109cb85828601610991565b92505060206109dc85828601610991565b9150509250929050565b6000602082840312156109fc576109fb6108b6565b5b6000610a0a84828501610991565b91505092915050565b600082825260208201905092915050565b7f4e6f20656e6f7567682062616c616e6365000000000000000000000000000000600082015250565b6000610a5a601183610a13565b9150610a6582610a24565b602082019050919050565b60006020820190508181036000830152610a8981610a4d565b9050919050565b7f4e487b7100000000000000000000000000000000000000000000000000000000600052601160045260246000fd5b6000610aca82610946565b9150610ad583610946565b9250828201905080821115610aed57610aec610a90565b5b92915050565b6000610afe82610946565b9150610b0983610946565b9250828202610b1781610946565b91508282048414831517610b2e57610b2d610a90565b5b5092915050565b6000610b4082610946565b9150610b4b83610946565b9250828203905081811115610b6357610b62610a90565b5b92915050565b7f4e487b7100000000000000000000000000000000000000000000000000000000600052601260045260246000fd5b6000610ba382610946565b9150610bae83610946565b925082610bbe57610bbd610b69565b5b828204905092915050565b7f416d6f756e74206d757374206265206d6f7265207468616e2030000000000000600082015250565b6000610bff601a83610a13565b9150610c0a82610bc9565b602082019050919050565b60006020820190508181036000830152610c2e81610bf2565b9050919050565b7f596f752063616e206e6f7420756e7374616b6520756e74696c6c2074696d652060008201527f68617320656e6400000000000000000000000000000000000000000000000000602082015250565b6000610c91602783610a13565b9150610c9c82610c35565b604082019050919050565b60006020820190508181036000830152610cc081610c84565b905091905056fea26469706673582212201f0e4a0840f794025464a6ab0ecba4cf9494164f39f9c7b70ede6315ef8d9cff64736f6c634300081c0033",
  "linkReferences": {},
  "deployedLinkReferences": {}
}