{
  "_format": "hh-sol-artifact-1",
  "contractName": "Defi_v1",
  "sourceName": "contracts/defi.sol",
  "abi": [
    {
      "inputs": [
        {
          "internalType": "address",
          "name": "target",
          "type": "address"
        }
      ],
      "name": "AddressEmptyCode",
      "type": "error"
    },
    {
      "inputs": [
        {
          "internalType": "address",
          "name": "implementation",
          "type": "address"
        }
      ],
      "name": "ERC1967InvalidImplementation",
      "type": "error"
    },
    {
      "inputs": [],
      "name": "ERC1967NonPayable",
      "type": "error"
    },
    {
      "inputs": [],
      "name": "FailedCall",
      "type": "error"
    },
    {
      "inputs": [],
      "name": "InvalidInitialization",
      "type": "error"
    },
    {
      "inputs": [],
      "name": "NotInitializing",
      "type": "error"
    },
    {
      "inputs": [
        {
          "internalType": "address",
          "name": "owner",
          "type": "address"
        }
      ],
      "name": "OwnableInvalidOwner",
      "type": "error"
    },
    {
      "inputs": [
        {
          "internalType": "address",
          "name": "account",
          "type": "address"
        }
      ],
      "name": "OwnableUnauthorizedAccount",
      "type": "error"
    },
    {
      "inputs": [],
      "name": "UUPSUnauthorizedCallContext",
      "type": "error"
    },
    {
      "inputs": [
        {
          "internalType": "bytes32",
          "name": "slot",
          "type": "bytes32"
        }
      ],
      "name": "UUPSUnsupportedProxiableUUID",
      "type": "error"
    },
    {
      "anonymous": false,
      "inputs": [
        {
          "indexed": false,
          "internalType": "uint64",
          "name": "version",
          "type": "uint64"
        }
      ],
      "name": "Initialized",
      "type": "event"
    },
    {
      "anonymous": false,
      "inputs": [
        {
          "indexed": true,
          "internalType": "address",
          "name": "previousOwner",
          "type": "address"
        },
        {
          "indexed": true,
          "internalType": "address",
          "name": "newOwner",
          "type": "address"
        }
      ],
      "name": "OwnershipTransferred",
      "type": "event"
    },
    {
      "anonymous": false,
      "inputs": [
        {
          "indexed": true,
          "internalType": "address",
          "name": "implementation",
          "type": "address"
        }
      ],
      "name": "Upgraded",
      "type": "event"
    },
    {
      "anonymous": false,
      "inputs": [
        {
          "indexed": true,
          "internalType": "address",
          "name": "user",
          "type": "address"
        },
        {
          "indexed": false,
          "internalType": "uint256",
          "name": "amount",
          "type": "uint256"
        },
        {
          "indexed": false,
          "internalType": "uint256",
          "name": "time",
          "type": "uint256"
        }
      ],
      "name": "depositlog",
      "type": "event"
    },
    {
      "anonymous": false,
      "inputs": [
        {
          "indexed": true,
          "internalType": "address",
          "name": "user",
          "type": "address"
        },
        {
          "indexed": false,
          "internalType": "uint256",
          "name": "amount",
          "type": "uint256"
        },
        {
          "indexed": false,
          "internalType": "uint256",
          "name": "time",
          "type": "uint256"
        }
      ],
      "name": "rewardlog",
      "type": "event"
    },
    {
      "anonymous": false,
      "inputs": [
        {
          "indexed": true,
          "internalType": "address",
          "name": "user",
          "type": "address"
        },
        {
          "indexed": false,
          "internalType": "uint256",
          "name": "amount",
          "type": "uint256"
        },
        {
          "indexed": false,
          "internalType": "uint256",
          "name": "time",
          "type": "uint256"
        }
      ],
      "name": "stakelog",
      "type": "event"
    },
    {
      "anonymous": false,
      "inputs": [
        {
          "indexed": true,
          "internalType": "address",
          "name": "user",
          "type": "address"
        },
        {
          "indexed": false,
          "internalType": "uint256",
          "name": "amount",
          "type": "uint256"
        },
        {
          "indexed": false,
          "internalType": "uint256",
          "name": "time",
          "type": "uint256"
        }
      ],
      "name": "unstakelog",
      "type": "event"
    },
    {
      "inputs": [
        {
          "internalType": "address",
          "name": "_address",
          "type": "address"
        }
      ],
      "name": "BXT_Address",
      "outputs": [],
      "stateMutability": "nonpayable",
      "type": "function"
    },
    {
      "inputs": [
        {
          "internalType": "uint256",
          "name": "amount",
          "type": "uint256"
        },
        {
          "internalType": "uint256",
          "name": "time",
          "type": "uint256"
        }
      ],
      "name": "CalculateRewards",
      "outputs": [
        {
          "internalType": "uint256",
          "name": "",
          "type": "uint256"
        }
      ],
      "stateMutability": "view",
      "type": "function"
    },
    {
      "inputs": [],
      "name": "CheckReward",
      "outputs": [
        {
          "internalType": "uint256",
          "name": "",
          "type": "uint256"
        }
      ],
      "stateMutability": "view",
      "type": "function"
    },
    {
      "inputs": [],
      "name": "Deposit",
      "outputs": [],
      "stateMutability": "payable",
      "type": "function"
    },
    {
      "inputs": [
        {
          "internalType": "uint256",
          "name": "index",
          "type": "uint256"
        }
      ],
      "name": "ForceUnstake",
      "outputs": [],
      "stateMutability": "nonpayable",
      "type": "function"
    },
    {
      "inputs": [],
      "name": "GetStakeLists",
      "outputs": [
        {
          "components": [
            {
              "internalType": "uint256",
              "name": "balance",
              "type": "uint256"
            },
            {
              "internalType": "uint256",
              "name": "stakingTime",
              "type": "uint256"
            },
            {
              "internalType": "uint256",
              "name": "endtime",
              "type": "uint256"
            },
            {
              "internalType": "uint256",
              "name": "reward",
              "type": "uint256"
            }
          ],
          "internalType": "struct Defi_v1.Stake[]",
          "name": "",
          "type": "tuple[]"
        }
      ],
      "stateMutability": "view",
      "type": "function"
    },
    {
      "inputs": [
        {
          "internalType": "uint256",
          "name": "duration",
          "type": "uint256"
        }
      ],
      "name": "Staking",
      "outputs": [],
      "stateMutability": "payable",
      "type": "function"
    },
    {
      "inputs": [],
      "name": "UPGRADE_INTERFACE_VERSION",
      "outputs": [
        {
          "internalType": "string",
          "name": "",
          "type": "string"
        }
      ],
      "stateMutability": "view",
      "type": "function"
    },
    {
      "inputs": [
        {
          "internalType": "uint256",
          "name": "index",
          "type": "uint256"
        }
      ],
      "name": "Unstake",
      "outputs": [],
      "stateMutability": "nonpayable",
      "type": "function"
    },
    {
      "inputs": [],
      "name": "bxt",
      "outputs": [
        {
          "internalType": "contract BXT",
          "name": "",
          "type": "address"
        }
      ],
      "stateMutability": "view",
      "type": "function"
    },
    {
      "inputs": [],
      "name": "initialize",
      "outputs": [],
      "stateMutability": "nonpayable",
      "type": "function"
    },
    {
      "inputs": [
        {
          "internalType": "address",
          "name": "",
          "type": "address"
        }
      ],
      "name": "mainBalance",
      "outputs": [
        {
          "internalType": "uint256",
          "name": "",
          "type": "uint256"
        }
      ],
      "stateMutability": "view",
      "type": "function"
    },
    {
      "inputs": [],
      "name": "owner",
      "outputs": [
        {
          "internalType": "address",
          "name": "",
          "type": "address"
        }
      ],
      "stateMutability": "view",
      "type": "function"
    },
    {
      "inputs": [],
      "name": "proxiableUUID",
      "outputs": [
        {
          "internalType": "bytes32",
          "name": "",
          "type": "bytes32"
        }
      ],
      "stateMutability": "view",
      "type": "function"
    },
    {
      "inputs": [],
      "name": "renounceOwnership",
      "outputs": [],
      "stateMutability": "nonpayable",
      "type": "function"
    },
    {
      "inputs": [
        {
          "internalType": "address",
          "name": "",
          "type": "address"
        }
      ],
      "name": "stakeCount",
      "outputs": [
        {
          "internalType": "uint256",
          "name": "",
          "type": "uint256"
        }
      ],
      "stateMutability": "view",
      "type": "function"
    },
    {
      "inputs": [
        {
          "internalType": "address",
          "name": "",
          "type": "address"
        },
        {
          "internalType": "uint256",
          "name": "",
          "type": "uint256"
        }
      ],
      "name": "stakeList",
      "outputs": [
        {
          "internalType": "uint256",
          "name": "balance",
          "type": "uint256"
        },
        {
          "internalType": "uint256",
          "name": "stakingTime",
          "type": "uint256"
        },
        {
          "internalType": "uint256",
          "name": "endtime",
          "type": "uint256"
        },
        {
          "internalType": "uint256",
          "name": "reward",
          "type": "uint256"
        }
      ],
      "stateMutability": "view",
      "type": "function"
    },
    {
      "inputs": [
        {
          "internalType": "address",
          "name": "newOwner",
          "type": "address"
        }
      ],
      "name": "transferOwnership",
      "outputs": [],
      "stateMutability": "nonpayable",
      "type": "function"
    },
    {
      "inputs": [
        {
          "internalType": "address",
          "name": "newImplementation",
          "type": "address"
        },
        {
          "internalType": "bytes",
          "name": "data",
          "type": "bytes"
        }
      ],
      "name": "upgradeToAndCall",
      "outputs": [],
      "stateMutability": "payable",
      "type": "function"
    }
  ],
  "bytecode": "0x60a060405230608052348015601357600080fd5b5060805161153461003d60003960008181610d2501528181610d4e0152610e9401526115346000f3fe6080604052600436106101145760003560e01c80638da5cb5b116100a0578063d9285f2811610064578063d9285f2814610331578063e538abca14610351578063ed21248c14610373578063f1f1db1e1461037b578063f2fde38b1461039b57600080fd5b80638da5cb5b1461025a5780638f76eb12146102ab578063ad3cb1cc146102c0578063adf8ccaa146102fe578063c3042fe31461031157600080fd5b806352d1902d116100e757806352d1902d146101ae578063538b5c98146101c3578063715018a6146102035780638129fc1c146102185780638839a1651461022d57600080fd5b8063259dedae146101195780632d76b78f1461013b57806333060d901461016e5780634f1ef2861461019b575b600080fd5b34801561012557600080fd5b506101396101343660046111b8565b6103bb565b005b34801561014757600080fd5b5061015b6101563660046111d3565b6103e5565b6040519081526020015b60405180910390f35b34801561017a57600080fd5b5061015b6101893660046111b8565b60046020526000908152604090205481565b6101396101a936600461120b565b610422565b3480156101ba57600080fd5b5061015b610441565b3480156101cf57600080fd5b506101e36101de3660046112d5565b61045e565b604080519485526020850193909352918301526060820152608001610165565b34801561020f57600080fd5b506101396104a4565b34801561022457600080fd5b506101396104b8565b34801561023957600080fd5b5061015b6102483660046111b8565b60026020526000908152604090205481565b34801561026657600080fd5b507f9016d09d72d40fdae2fd8ceac6b6234c7706214fd39c1cd1e609a0528c199300546001600160a01b03165b6040516001600160a01b039091168152602001610165565b3480156102b757600080fd5b5061015b6105b8565b3480156102cc57600080fd5b506102f1604051806040016040528060058152602001640352e302e360dc1b81525081565b6040516101659190611323565b61013961030c366004611356565b61062a565b34801561031d57600080fd5b50600054610293906001600160a01b031681565b34801561033d57600080fd5b5061013961034c366004611356565b610796565b34801561035d57600080fd5b50610366610999565b604051610165919061136f565b610139610a2b565b34801561038757600080fd5b50610139610396366004611356565b610adb565b3480156103a757600080fd5b506101396103b63660046111b8565b610c81565b6103c3610cbf565b600080546001600160a01b0319166001600160a01b0392909216919091179055565b60008063bbf81e006103f784426113ee565b6001546104049087611401565b61040e9190611401565b6104189190611418565b9150505b92915050565b61042a610d1a565b61043382610dbf565b61043d8282610dc7565b5050565b600061044b610e89565b506000805160206114df83398151915290565b6003602052816000526040600020818154811061047a57600080fd5b60009182526020909120600490910201805460018201546002830154600390930154919450925084565b6104ac610cbf565b6104b66000610ed2565b565b60006104c2610f43565b805490915060ff600160401b820416159067ffffffffffffffff166000811580156104ea5750825b905060008267ffffffffffffffff1660011480156105075750303b155b905081158015610515575080155b156105335760405163f92ee8a960e01b815260040160405180910390fd5b845467ffffffffffffffff19166001178555831561055d57845460ff60401b1916600160401b1785555b61056633610f6c565b603260015583156105b157845460ff60401b19168555604051600181527fc7f505b2f371ae2175ee4913f4499e1f2633a7b5936321eed1cdaeb6115181d29060200160405180910390a15b5050505050565b600080546040516370a0823160e01b81523360048201526001600160a01b03909116906370a0823190602401602060405180830381865afa158015610601573d6000803e3d6000fd5b505050506040513d601f19601f82011682018060405250810190610625919061143a565b905090565b3360009081526002602052604090205434111561068e5760405162461bcd60e51b815260206004820181905260248201527f4e6f20656e6f7567682062616c616e63652c204465706f73697420666972737460448201526064015b60405180910390fd5b3360009081526004602052604081208054916106a983611453565b909155505033600090815260036020908152604091829020825160808101845234815242928101929092529181016106e284603c611401565b6106ec904261146c565b8152600060209182018190528354600181810186559482528282208451600490920201908155838301519481019490945560408084015160028087019190915560609094015160039095019490945533815291905290812080543492906107549084906113ee565b90915550506040805134815242602082015233917ff19afd0b8c578441080f2765dc02e63ffe764b05c6a46c95dc30669b0ce4170c910160405180910390a250565b3360009081526003602052604081208054839081106107b7576107b761147f565b90600052602060002090600402019050600060648260000154600a6107dc9190611401565b6107e69190611418565b3060009081526002602052604081208054929350839290919061080a90849061146c565b9091555050815461081c9082906113ee565b336000908152600260205260408120805490919061083b90849061146c565b909155505081546040805191825242602083015233917f10af7ca44095362d289efff256040a7c3804cdfb4ff138af0721512160a57f8b91015b60405180910390a23360009081526003602090815260408083206004909252909120546108a4906001906113ee565b815481106108b4576108b461147f565b906000526020600020906004020160036000336001600160a01b03166001600160a01b0316815260200190815260200160002084815481106108f8576108f861147f565b600091825260208083208454600490930201918255600180850154908301556002808501549083015560039384015491840191909155338252919091526040902080548061094857610948611495565b600082815260208082206004600019909401848102909101838155600181018490556002810184905560030183905590935533815291526040812080549161098f836114ab565b9190505550505050565b336000908152600360209081526040808320805482518185028101850190935280835260609492939192909184015b82821015610a225783829060005260206000209060040201604051806080016040529081600082015481526020016001820154815260200160028201548152602001600382015481525050815260200190600101906109c8565b50505050905090565b60003411610a7b5760405162461bcd60e51b815260206004820152601a60248201527f416d6f756e74206d757374206265206d6f7265207468616e20300000000000006044820152606401610685565b3360009081526002602052604081208054349290610a9a90849061146c565b90915550506040805134815242602082015233917f8299b99845c544a0368bceebe5e2bb8b244991345fa2d6a176794536f56d1284910160405180910390a2565b336000908152600360205260408120805483908110610afc57610afc61147f565b906000526020600020906004020190504281600201541115610b705760405162461bcd60e51b815260206004820152602760248201527f596f752063616e206e6f7420756e7374616b6520756e74696c6c2074696d65206044820152661a185cc8195b9960ca1b6064820152608401610685565b80543360009081526002602052604081208054909190610b9190849061146c565b909155505080546001820154600091610ba9916103e5565b6000546040516312e1863160e11b8152336004820152602481018390529192506001600160a01b0316906325c30c6290604401600060405180830381600087803b158015610bf657600080fd5b505af1158015610c0a573d6000803e3d6000fd5b5050604080518481524260208201523393507fb2f20ec349cd6766bb194c361d3427ceba32d1e8070fd6dd56fb9477cbd573fd92500160405180910390a281546040805191825242602083015233917f10af7ca44095362d289efff256040a7c3804cdfb4ff138af0721512160a57f8b9101610875565b610c89610cbf565b6001600160a01b038116610cb357604051631e4fbdf760e01b815260006004820152602401610685565b610cbc81610ed2565b50565b33610cf17f9016d09d72d40fdae2fd8ceac6b6234c7706214fd39c1cd1e609a0528c199300546001600160a01b031690565b6001600160a01b0316146104b65760405163118cdaa760e01b8152336004820152602401610685565b306001600160a01b037f0000000000000000000000000000000000000000000000000000000000000000161480610da157507f00000000000000000000000000000000000000000000000000000000000000006001600160a01b0316610d956000805160206114df833981519152546001600160a01b031690565b6001600160a01b031614155b156104b65760405163703e46dd60e11b815260040160405180910390fd5b610cbc610cbf565b816001600160a01b03166352d1902d6040518163ffffffff1660e01b8152600401602060405180830381865afa925050508015610e21575060408051601f3d908101601f19168201909252610e1e9181019061143a565b60015b610e4957604051634c9c8ce360e01b81526001600160a01b0383166004820152602401610685565b6000805160206114df8339815191528114610e7a57604051632a87526960e21b815260048101829052602401610685565b610e848383610f7d565b505050565b306001600160a01b037f000000000000000000000000000000000000000000000000000000000000000016146104b65760405163703e46dd60e11b815260040160405180910390fd5b7f9016d09d72d40fdae2fd8ceac6b6234c7706214fd39c1cd1e609a0528c19930080546001600160a01b031981166001600160a01b03848116918217845560405192169182907f8be0079c531659141344cd1fd0a4f28419497f9722a3daafe3b4186f6b6457e090600090a3505050565b6000807ff0c57e16840df040f15088dc2f81fe391c3923bec73e23a9662efc9c229c6a0061041c565b610f74610fd3565b610cbc81610ff8565b610f8682611000565b6040516001600160a01b038316907fbc7cd75a20ee27fd9adebab32041f755214dbc6bffa90cc0225b39da2e5c2d3b90600090a2805115610fcb57610e848282611065565b61043d6110db565b610fdb6110fa565b6104b657604051631afcd79f60e31b815260040160405180910390fd5b610c89610fd3565b806001600160a01b03163b60000361103657604051634c9c8ce360e01b81526001600160a01b0382166004820152602401610685565b6000805160206114df83398151915280546001600160a01b0319166001600160a01b0392909216919091179055565b6060600080846001600160a01b03168460405161108291906114c2565b600060405180830381855af49150503d80600081146110bd576040519150601f19603f3d011682016040523d82523d6000602084013e6110c2565b606091505b50915091506110d2858383611114565b95945050505050565b34156104b65760405163b398979f60e01b815260040160405180910390fd5b6000611104610f43565b54600160401b900460ff16919050565b6060826111295761112482611173565b61116c565b815115801561114057506001600160a01b0384163b155b1561116957604051639996b31560e01b81526001600160a01b0385166004820152602401610685565b50805b9392505050565b8051156111835780518082602001fd5b60405163d6bda27560e01b815260040160405180910390fd5b80356001600160a01b03811681146111b357600080fd5b919050565b6000602082840312156111ca57600080fd5b61116c8261119c565b600080604083850312156111e657600080fd5b50508035926020909101359150565b634e487b7160e01b600052604160045260246000fd5b6000806040838503121561121e57600080fd5b6112278361119c565b9150602083013567ffffffffffffffff81111561124357600080fd5b8301601f8101851361125457600080fd5b803567ffffffffffffffff81111561126e5761126e6111f5565b604051601f8201601f19908116603f0116810167ffffffffffffffff8111828210171561129d5761129d6111f5565b6040528181528282016020018710156112b557600080fd5b816020840160208301376000602083830101528093505050509250929050565b600080604083850312156112e857600080fd5b6112f18361119c565b946020939093013593505050565b60005b8381101561131a578181015183820152602001611302565b50506000910152565b60208152600082518060208401526113428160408501602087016112ff565b601f01601f19169190910160400192915050565b60006020828403121561136857600080fd5b5035919050565b602080825282518282018190526000918401906040840190835b818110156113cd5783518051845260208101516020850152604081015160408501526060810151606085015250608083019250602084019350600181019050611389565b509095945050505050565b634e487b7160e01b600052601160045260246000fd5b8181038181111561041c5761041c6113d8565b808202811582820484141761041c5761041c6113d8565b60008261143557634e487b7160e01b600052601260045260246000fd5b500490565b60006020828403121561144c57600080fd5b5051919050565b600060018201611465576114656113d8565b5060010190565b8082018082111561041c5761041c6113d8565b634e487b7160e01b600052603260045260246000fd5b634e487b7160e01b600052603160045260246000fd5b6000816114ba576114ba6113d8565b506000190190565b600082516114d48184602087016112ff565b919091019291505056fe360894a13ba1a3210667c828492db98dca3e2076cc3735a920a3ca505d382bbca26469706673582212208f033a051dde8531ab8ad186af2a61f6bb7bdf8229e0b57a86826f6e2b37da2f64736f6c634300081c0033",
  "linkReferences": {},
  "deployedLinkReferences": {}
}